:040000001EEF1AF0E5
:1010000000D300940082004B00FF00000000FF00AE
:101010000000FFFF00008CFF000000FF00FFFFFF4B
:10102000008080800000000000C7C5C4C3C2C1C0EA
:10103000B4B3B2B13A3938363534302C2B2A29289A
:10104000262120131211100100C7C5C4C3C2C1C09C
:10105000B4B3B2B13A3938363534302C2B2A29287A
:101060002621201312111001008080A08020202052
:101070002020202020204D414B45202020202020D2
:101080002020002020202020202020414741494EC0
:101090002020202020202020002020202020202070
:1010A000204752454154202020202020202000208D
:1010B000202020202020414D45524943412020201E
:1010C00020202020002020202020205452554D5048
:1010D0002032303230202020202000001A6EB1EF64
:1010E00013F0000E016E000E026E000E036E000E75
:1010F000046E000E056E000E066E000E076E000EEA
:10110000086E99EC19F0E9CFD9FFEACFDAFF00EECB
:1011100011F0070EDBCFEBFFE806FCE21200210E18
:10112000016E800E026E000E036E000E046E000E45
:10113000056E100E066E420E076E080E086E99ECD4
:1011400019F0E9CFD9FFEACFDAFF00EE11F0070E70
:10115000DBCFEBFFE806FCE21200000E016E000E92
:10116000026E000E036E000E046E000E056E280E59
:10117000066EA50E076E000E086E99EC19F0E9CF09
:10118000D9FFEACFDAFF00EE11F0070EDBCFEBFF5D
:10119000E806FCE21200FA0E016E4A0E026E010E23
:1011A000036E000E046E000E056E000E066EA50E98
:1011B000076EBE0E086E99EC19F0E9CFD9FFEACFA1
:1011C000DAFF00EE11F0070EDBCFEBFFE806FCE2E2
:1011D0001200A30E016EF40E026E110E036E000ECD
:1011E000046E000E056E100E066E5F0E076E8A0E00
:1011F000086E99EC19F0E9CFD9FFEACFDAFF00EEDB
:1012000011F0070EDBCFEBFFE806FCE21200110E37
:10121000016EAA0E026E260E036E000E046E000E04
:10122000056EC80E066EAA0E076E100E086E99ECBB
:1012300019F0E9CFD9FFEACFDAFF00EE11F0070E7F
:10124000DBCFEBFFE806FCE21200280E016E390E40
:10125000026E590E036E000E046E000E056E000E37
:10126000066E510E076E8A0E086E99EC19F0E9CFE2
:10127000D9FFEACFDAFF00EE11F0070EDBCFEBFF6C
:10128000E806FCE21200000E016E000E026E000E77
:10129000036E000E046E000E056E100E066E420EFA
:1012A000076E000E086E99EC19F0E9CFD9FFEACF6E
:1012B000DAFF00EE11F0070EDBCFEBFFE806FCE2F1
:1012C0001200100E016E820E026E100E036E040EDE
:1012D000046E000E056E110E066E220E076E840E51
:1012E000086E99EC19F0E9CFD9FFEACFDAFF00EEEA
:1012F00011F0070EDBCFEBFFE806FCE21200420E16
:10130000016E880E026E100E036E010E046E400E0A
:10131000056E100E066E820E076E100E086E99ECAA
:1013200019F0E9CFD9FFEACFDAFF00EE11F0070E8E
:10133000DBCFEBFFE806FCE21200010E016E000EAF
:10134000026E000E036E000E046E000E056E900E0F
:10135000066EEA0E076E2A0E086E99EC19F0E9CFB8
:10136000D9FFEACFDAFF00EE11F0070EDBCFEBFF7B
:10137000E806FCE21200270E016E040E026E000E5B
:10138000036E000E046E000E056E000E066E400E1B
:10139000076EC80E086E99EC19F0E9CFD9FFEACFB5
:1013A000DAFF00EE11F0070EDBCFEBFFE806FCE200
:1013B0001200000E016E800E026E110E036E010E01
:1013C000046E000E056E000E066E000E076E000E17
:1013D000086E99EC19F0E9CFD9FFEACFDAFF00EEF9
:1013E00011F0070EDBCFEBFFE806FCE21200070E60
:1013F000016E000E026E000E036E000E046E000EF3
:10140000056E000E066E000E076EC00E086E99EC9B
:1014100019F0E9CFD9FFEACFDAFF00EE11F0070E9D
:10142000DBCFEBFFE806FCE21200000E016E800E3F
:10143000026E380E036E020E046E000E056E000E74
:10144000066E000E076E000E086E99EC19F0E9CFDB
:10145000D9FFEACFDAFF00EE11F0070EDBCFEBFF8A
:10146000E806FCE21200110E016E220E026E040E5E
:10147000036E000E046E000E056E400E066E880EA2
:10148000076E100E086E99EC19F0E9CFD9FFEACF7C
:10149000DAFF00EE11F0070EDBCFEBFFE806FCE20F
:1014A00012008C0E016E8A0E026E000E036E000E8C
:1014B000046E800E056EA80E066E180E076E630E83
:1014C000086E99EC19F0E9CFD9FFEACFDAFF00EE08
:1014D00011F0070EDBCFEBFFE806FCE21200210E55
:1014E000016EE40E026E030E036E000E046E800E9B
:1014F000056E980E066E420E076E080E086E99EC89
:1015000019F0E9CFD9FFEACFDAFF00EE11F0070EAC
:10151000DBCFEBFFE806FCE21200110E016EE10EDC
:10152000026E030E036E000E046EC00E056EC50E35
:10153000066E080E076E110E086E99EC19F0E9CFD1
:10154000D9FFEACFDAFF00EE11F0070EDBCFEBFF99
:10155000E806FCE21200840E016ED10E026E010E4E
:10156000036E000E046EE00E056E430E066E440E12
:10157000076E1C0E086E99EC19F0E9CFD9FFEACF7F
:10158000DAFF00EE11F0070EDBCFEBFFE806FCE21E
:101590001200FA0E016E080E026E010E036E000EAE
:1015A000046E000E056E210E066EA60E076E540E1A
:1015B000086E99EC19F0E9CFD9FFEACFDAFF00EE17
:1015C00011F0070EDBCFEBFFE806FCE21200840E01
:1015D000016ED10E026E010E036E000E046EE00E5F
:1015E000056E870E066ED00E076E260E086E99ECFD
:1015F00019F0E9CFD9FFEACFDAFF00EE11F0070EBC
:10160000DBCFEBFFE806FCE212008C0E016ED10E80
:10161000026E010E036E000E046EC00E056EC50E46
:10162000066E100E076E5E0E086E99EC19F0E9CF8B
:10163000D9FFEACFDAFF00EE11F0070EDBCFEBFFA8
:10164000E806FCE21200110E016E420E026E000E60
:10165000036E000E046EE00E056E430E066E840EE1
:10166000076E080E086E99EC19F0E9CFD9FFEACFA2
:10167000DAFF00EE11F0070EDBCFEBFFE806FCE22D
:1016800012008C0E016ED10E026E010E036E000E62
:10169000046EC00E056EC50E066E180E076E5D0E4A
:1016A000086E99EC19F0E9CFD9FFEACFDAFF00EE26
:1016B00011F0070EDBCFEBFFE806FCE21200840E10
:1016C000016ED10E026E010E036E000E046EC00E8E
:1016D000056EC50E066E180E076E3D0E086E99EC6F
:1016E00019F0E9CFD9FFEACFDAFF00EE11F0070ECB
:1016F000DBCFEBFFE806FCE21200200E016E8E0E3F
:10170000026E000E036E000E046E000E056E100ECB
:10171000066E470E076E000E086E99EC19F0E9CFC1
:10172000D9FFEACFDAFF00EE11F0070EDBCFEBFFB7
:10173000E806FCE21200010E016E800E026E110E30
:10174000036E010E046E000E056E000E066E400E56
:10175000076E1C0E086E99EC19F0E9CFD9FFEACF9D
:10176000DAFF00EE11F0070EDBCFEBFFE806FCE23C
:101770001200100E016E040E026E410E036E000E7A
:10178000046E000E056E400E066E440E076E440E8B
:10179000086E99EC19F0E9CFD9FFEACFDAFF00EE35
:1017A00011F0070EDBCFEBFFE806FCE21200000EA3
:1017B000016E1F0E026E000E036E000E046E000E10
:1017C000056E000E066E000E076E3E0E086E99EC5A
:1017D00019F0E9CFD9FFEACFDAFF00EE11F0070EDA
:1017E000DBCFEBFFE806FCE21200440E016E440E74
:1017F000026E040E036E000E046E000E056E040EE3
:10180000066E410E076E100E086E99EC19F0E9CFC6
:10181000D9FFEACFDAFF00EE11F0070EDBCFEBFFC6
:10182000E806FCE21200220E016E040E026E100E9B
:10183000036E000E046E000E056EB80E066E180ED6
:10184000076E210E086E99EC19F0E9CFD9FFEACFA7
:10185000DAFF00EE11F0070EDBCFEBFFE806FCE24B
:101860001200AD0E016E2D0E026E780E036E000E8C
:10187000046E000E056EB80E066E180E076E730E1F
:10188000086E99EC19F0E9CFD9FFEACFDAFF00EE44
:1018900011F0070EDBCFEBFFE806FCE212008F0E23
:1018A000016E310E026E020E036E000E046E800E8B
:1018B000056EA80E066E180E076EE30E086E99EC04
:1018C00019F0E9CFD9FFEACFDAFF00EE11F0070EE9
:1018D000DBCFEBFFE806FCE21200940E016EF20E85
:1018E000026E010E036E000E046EE00E056E490ED0
:1018F000066E290E076E9D0E086E99EC19F0E9CF61
:10190000D9FFEACFDAFF00EE11F0070EDBCFEBFFD5
:10191000E806FCE21200080E016ED10E026E010E06
:10192000036E000E046EC00E056EC50E066E100E20
:10193000076E420E086E99EC19F0E9CFD9FFEACF95
:10194000DAFF00EE11F0070EDBCFEBFFE806FCE25A
:101950001200940E016EF20E026E010E036E000E66
:10196000046EE00E056E490E066E290E076EA50E7A
:10197000086E99EC19F0E9CFD9FFEACFDAFF00EE53
:1019800011F0070EDBCFEBFFE806FCE21200080EB9
:10199000016EE10E026E030E036E000E046EE00E89
:1019A000056E870E066E100E076E5E0E086E99ECC1
:1019B00019F0E9CFD9FFEACFDAFF00EE11F0070EF8
:1019C000DBCFEBFFE806FCE21200080E016E210EF1
:1019D000026E000E036E000E046EE00E056E870EA2
:1019E000066E100E076E5E0E086E99EC19F0E9CFC8
:1019F000D9FFEACFDAFF00EE11F0070EDBCFEBFFE5
:101A0000E806FCE212008E0E016ED10E026E010E8F
:101A1000036E000E046EC00E056EC50E066E100E2F
:101A2000076E420E086E99EC19F0E9CFD9FFEACFA4
:101A3000DAFF00EE11F0070EDBCFEBFFE806FCE269
:101A400012008C0E016E310E026E020E036E000E3D
:101A5000046E200E056EC60E066E180E076E7F0E03
:101A6000086E99EC19F0E9CFD9FFEACFDAFF00EE62
:101A700011F0070EDBCFEBFFE806FCE21200210EAF
:101A8000016EC40E026E010E036E000E046EC00ED7
:101A9000056E110E066E420E076E080E086E99EC6A
:101AA00019F0E9CFD9FFEACFDAFF00EE11F0070E07
:101AB000DBCFEBFFE806FCE21200420E016EC90E1E
:101AC000026E000E036E000E046E800E056E230E75
:101AD000066E840E076E100E086E99EC19F0E9CFB1
:101AE000D9FFEACFDAFF00EE11F0070EDBCFEBFFF4
:101AF000E806FCE21200490E016E310E026E020E83
:101B0000036E000E046E200E056EC60E066E540E99
:101B1000076E460E086E99EC19F0E9CFD9FFEACFAF
:101B2000DAFF00EE11F0070EDBCFEBFFE806FCE278
:101B30001200080E016EE10E026E030E036E000E1F
:101B4000046E200E056E840E066E100E076E420E99
:101B5000086E99EC19F0E9CFD9FFEACFDAFF00EE71
:101B600011F0070EDBCFEBFFE806FCE212008C0E53
:101B7000016E310E026E020E036E000E046E200E18
:101B8000056EC60E066E5D0E076E6B0E086E99EC46
:101B900019F0E9CFD9FFEACFDAFF00EE11F0070E16
:101BA000DBCFEBFFE806FCE21200CE0E016E310E39
:101BB000026E020E036E000E046E200E056ECE0E37
:101BC000066E590E076E6B0E086E99EC19F0E9CF90
:101BD000D9FFEACFDAFF00EE11F0070EDBCFEBFF03
:101BE000E806FCE212008C0E016ED10E026E010EB0
:101BF000036E000E046EC00E056EC50E066E180E46
:101C0000076E630E086E99EC19F0E9CFD9FFEACFA1
:101C1000DAFF00EE11F0070EDBCFEBFFE806FCE287
:101C20001200080E016E210E026E000E036E000EF1
:101C3000046EE00E056EC50E066E180E076E5F0E82
:101C4000086E99EC19F0E9CFD9FFEACFDAFF00EE80
:101C500011F0070EDBCFEBFFE806FCE212008C0E62
:101C6000016ED50E026E410E036E000E046EC00EA4
:101C7000056EC50E066E180E076E630E086E99ECA3
:101C800019F0E9CFD9FFEACFDAFF00EE11F0070E25
:101C9000DBCFEBFFE806FCE21200490E016E310ECD
:101CA000026E020E036E000E046EE00E056EC50E8F
:101CB000066E180E076E5F0E086E99EC19F0E9CFEC
:101CC000D9FFEACFDAFF00EE11F0070EDBCFEBFF12
:101CD000E806FCE21200840E016ED10E026E010EC7
:101CE000036E000E046EC00E056EC50E066E100E5D
:101CF000076E1C0E086E99EC19F0E9CFD9FFEACFF8
:101D0000DAFF00EE11F0070EDBCFEBFFE806FCE296
:101D10001200210E016E840E026E000E036E000E84
:101D2000046EE00E056E130E066E420E076E080E70
:101D3000086E99EC19F0E9CFD9FFEACFDAFF00EE8F
:101D400011F0070EDBCFEBFFE806FCE212008C0E71
:101D5000016ED10E026E010E036E000E046E200E97
:101D6000056EC60E066E180E076E630E086E99ECB1
:101D700019F0E9CFD9FFEACFDAFF00EE11F0070E34
:101D8000DBCFEBFFE806FCE21200520E016E840E80
:101D9000026E000E036E000E046E200E056EC60E5F
:101DA000066E180E076EA30E086E99EC19F0E9CFB7
:101DB000D9FFEACFDAFF00EE11F0070EDBCFEBFF21
:101DC000E806FCE21200AD0E016E550E026E010E29
:101DD000036E000E046E200E056EC60E066E180E03
:101DE000076E6B0E086E99EC19F0E9CFD9FFEACFB8
:101DF000DAFF00EE11F0070EDBCFEBFFE806FCE2A6
:101E00001200520E016E310E026E020E036E000EB3
:101E1000046E200E056E460E066EA50E076E880E29
:101E2000086E99EC19F0E9CFD9FFEACFDAFF00EE9E
:101E300011F0070EDBCFEBFFE806FCE21200210EEB
:101E4000016E840E026E000E036E000E046E200EF4
:101E5000056E460E066EA50E076E080E086E99EC0E
:101E600019F0E9CFD9FFEACFDAFF00EE11F0070E43
:101E7000DBCFEBFFE806FCE21200100E016EE10E74
:101E8000026E030E036E000E046EE00E056E430E2E
:101E9000066E840E076E880E086E99EC19F0E9CF75
:101EA000D9FFEACFDAFF00EE11F0070EDBCFEBFF30
:101EB000E806FCE21200100E016E420E026E080EE1
:101EC000036E070E046EC00E056E090E066E210E1F
:101ED000076E840E086E99EC19F0E9CFD9FFEACFAE
:101EE000DAFF00EE11F0070EDBCFEBFFE806FCE2B5
:101EF0001200410E016E080E026E420E036E000EBD
:101F0000046E000E056E840E066E200E076E040E23
:101F1000086E99EC19F0E9CFD9FFEACFDAFF00EEAD
:101F200011F0070EDBCFEBFFE806FCE21200420ED9
:101F3000016E080E026E210E036E070E046EC00EB7
:101F4000056E210E066E840E076E100E086E99EC5B
:101F500019F0E9CFD9FFEACFDAFF00EE11F0070E52
:101F6000DBCFEBFFE806FCE21200000E016E000E74
:101F7000026E000E036E000E046E000E056E100E53
:101F8000066E150E076E010E086E99EC19F0E9CF7A
:101F9000D9FFEACFDAFF00EE11F0070EDBCFEBFF3F
:101FA000E806FCE21200000E016E000E026E800ECA
:101FB000036E0F0E046E000E056E000E066E000E10
:101FC000076E000E086E99EC19F0E9CFD9FFEACF41
:101FD000DAFF00EE11F0070EDBCFEBFFE806FCE2C4
:101FE0001200000E016E000E026E000E036E000E57
:101FF000046EC00E056E100E066E040E076E000E07
:10200000086E99EC19F0E9CFD9FFEACFDAFF00EEBC
:1020100011F0070EDBCFEBFFE806FCE212008F0E9B
:10202000016ED90E026E020E036E000E046E000EDB
:10203000056E000E066EE00E076EA00E086E99EC9F
:1020400019F0E9CFD9FFEACFDAFF00EE11F0070E61
:10205000DBCFEBFFE806FCE212008C0E016EF10E06
:10206000026E010E036E000E046E200E056E840ECD
:10207000066EF00E076E620E086E99EC19F0E9CF4D
:10208000D9FFEACFDAFF00EE11F0070EDBCFEBFF4E
:10209000E806FCE21200080E016ED10E026E010E7F
:1020A000036E000E046E000E056E000E066EE00E4E
:1020B000076E620E086E99EC19F0E9CFD9FFEACFEE
:1020C000DAFF00EE11F0070EDBCFEBFFE806FCE2D3
:1020D00012008C0E016ED10E026E030E036E000E06
:1020E000046E000E056E420E066EE80E076E630E5D
:1020F000086E99EC19F0E9CFD9FFEACFDAFF00EECC
:1021000011F0070EDBCFEBFFE806FCE212000F0E2A
:10211000016ED10E026E010E036E000E046E000EF3
:10212000056E000E066EE00E076EE20E086E99EC6C
:1021300019F0E9CFD9FFEACFDAFF00EE11F0070E70
:10214000DBCFEBFFE806FCE21200100E016E420E40
:10215000026E000E036E000E046E800E056E490EB8
:10216000066E210E076E9E0E086E99EC19F0E9CFEF
:10217000D9FFEACFDAFF00EE11F0070EDBCFEBFF5D
:10218000E806FCE212008C0E016E1E0E026E460E78
:10219000036E070E046E000E056E000E066EE00E56
:1021A000076E620E086E99EC19F0E9CFD9FFEACFFD
:1021B000DAFF00EE11F0070EDBCFEBFFE806FCE2E2
:1021C00012008C0E016E310E026E020E036E000EB6
:1021D000046E200E056E840E066ED00E076E660E1F
:1021E000086E99EC19F0E9CFD9FFEACFDAFF00EEDB
:1021F00011F0070EDBCFEBFFE806FCE21200210E28
:10220000016EC40E026E010E036E000E046E000E0F
:10221000056E100E066E600E076E080E086E99ECC5
:1022200019F0E9CFD9FFEACFDAFF00EE11F0070E7F
:10223000DBCFEBFFE806FCE21200420E016E280E37
:10224000026E250E036E030E046E000E056E010E67
:10225000066E860E076E100E086E99EC19F0E9CF27
:10226000D9FFEACFDAFF00EE11F0070EDBCFEBFF6C
:10227000E806FCE21200280E016E290E026E020E24
:10228000036E000E046E200E056E840E066E900E18
:10229000076ECA0E086E99EC19F0E9CFD9FFEACFA4
:1022A000DAFF00EE11F0070EDBCFEBFFE806FCE2F1
:1022B0001200210E016EC40E026E010E036E000E9E
:1022C000046EC00E056E100E066E420E076E080EEE
:1022D000086E99EC19F0E9CFD9FFEACFDAFF00EEEA
:1022E00011F0070EDBCFEBFFE806FCE21200AD0EAB
:1022F000016E350E026E020E036E000E046E000EAD
:10230000056E000E066EB00E076E6A0E086E99EC32
:1023100019F0E9CFD9FFEACFDAFF00EE11F0070E8E
:10232000DBCFEBFFE806FCE212008C0E016E310EF3
:10233000026E020E036E000E046E000E056E000E9D
:10234000066ED00E076E660E086E99EC19F0E9CF96
:10235000D9FFEACFDAFF00EE11F0070EDBCFEBFF7B
:10236000E806FCE212008C0E016ED10E026E010E28
:10237000036E000E046E000E056E000E066EE00E7B
:10238000076E620E086E99EC19F0E9CFD9FFEACF1B
:10239000DAFF00EE11F0070EDBCFEBFFE806FCE200
:1023A0001200840E016E2F0E026E840E036E000E5C
:1023B000046E000E056E000E066EF00E076E200E07
:1023C000086E99EC19F0E9CFD9FFEACFDAFF00EEF9
:1023D00011F0070EDBCFEBFFE806FCE212008C0EDB
:1023E000016E1E0E026E420E036E080E046E000E8B
:1023F000056E000E066EE00E076E630E086E99EC19
:1024000019F0E9CFD9FFEACFDAFF00EE11F0070E9D
:10241000DBCFEBFFE806FCE21200080E016E210E96
:10242000026E000E036E000E046E000E056E000EAE
:10243000066ED00E076E660E086E99EC19F0E9CFA5
:10244000D9FFEACFDAFF00EE11F0070EDBCFEBFF8A
:10245000E806FCE21200410E016ED10E026E010E82
:10246000036E000E046E000E056E000E066EE00E8A
:10247000076EA20E086E99EC19F0E9CFD9FFEACFEA
:10248000DAFF00EE11F0070EDBCFEBFFE806FCE20F
:102490001200100E016E920E026E010E036E000EFF
:1024A000046E000E056E080E066EF10E076E840EA9
:1024B000086E99EC19F0E9CFD9FFEACFDAFF00EE08
:1024C00011F0070EDBCFEBFFE806FCE212008C0EEA
:1024D000016ED90E026E020E036E000E046E000E27
:1024E000056E000E066E100E076E630E086E99ECF8
:1024F00019F0E9CFD9FFEACFDAFF00EE11F0070EAD
:10250000DBCFEBFFE806FCE21200540E016E8A0EF0
:10251000026E000E036E000E046E000E056E000EBD
:10252000066E100E076E630E086E99EC19F0E9CF77
:10253000D9FFEACFDAFF00EE11F0070EDBCFEBFF99
:10254000E806FCE21200AD0E016E550E026E010EA1
:10255000036E000E046E000E056E000E066E100E69
:10256000076E630E086E99EC19F0E9CFD9FFEACF38
:10257000DAFF00EE11F0070EDBCFEBFFE806FCE21E
:102580001200210E016E2A0E026E020E036E000E64
:10259000046E000E056E000E066E100E076E150E10
:1025A000086E99EC19F0E9CFD9FFEACFDAFF00EE17
:1025B00011F0070EDBCFEBFFE806FCE21200CC0EB9
:1025C000016E160E026E460E036E070E046E000EAE
:1025D000056E000E066E100E076E630E086E99EC07
:1025E00019F0E9CFD9FFEACFDAFF00EE11F0070EBC
:1025F000DBCFEBFFE806FCE21200110E016EE10EEC
:10260000026E030E036E000E046E000E056E000EC9
:10261000066EF00E076E110E086E99EC19F0E9CFF8
:10262000D9FFEACFDAFF00EE11F0070EDBCFEBFFA8
:10263000E806FCE21200200E016E840E026E100EFF
:10264000036E0C0E046E000E056E130E066E420E27
:10265000076EC80E086E99EC19F0E9CFD9FFEACFE2
:10266000DAFF00EE11F0070EDBCFEBFFE806FCE22D
:102670001200210E016E840E026E100E036E000E0B
:10268000046E000E056E100E066E420E076E080EEA
:10269000086E99EC19F0E9CFD9FFEACFDAFF00EE26
:1026A00011F0070EDBCFEBFFE806FCE21200260E6E
:1026B000016E840E026E900E036E010E046E600EAB
:1026C000056E100E066E420E076E080E086E99EC2F
:1026D00019F0E9CFD9FFEACFDAFF00EE11F0070ECB
:1026E000DBCFEBFFE806FCE21200000E016E000EED
:1026F000026E000E036E000E046E000E056EC80E14
:10270000066E9A0E076E000E086E99EC19F0E9CF6E
:10271000D9FFEACFDAFF00EE11F0070EDBCFEBFFB7
:10272000E806FCE21200000E016E000E026E000EC2
:10273000036E000E046E000E056E000E066E000E97
:10274000076E000E086E99EC19F0E9CFD9FFEACFB9
:10275000DAFF00EE11F0070EDBCFEBFFE806FCE23C
:1027600012001A50200AD8B471EF08F0010AD8B448
:102770008FEF08F0030AD8B4ADEF08F0010AD8B41F
:10278000CBEF08F0070AD8B4E9EF08F0010AD8B493
:1027900007EF09F0030AD8B425EF09F0010AD8B40D
:1027A00043EF09F00F0AD8B461EF09F0010AD8B479
:1027B0007FEF09F0030AD8B49DEF09F0010AD8B4FD
:1027C000BBEF09F0070AD8B4D9EF09F0010AD8B471
:1027D000F7EF09F0030AD8B415EF0AF0010AD8B4EC
:1027E00033EF0AF01F0AD8B451EF0AF0010AD8B447
:1027F0006FEF0AF0030AD8B48DEF0AF0010AD8B4DB
:10280000ABEF0AF0070AD8B4C9EF0AF0010AD8B44E
:10281000E7EF0AF0030AD8B405EF0BF0010AD8B4C9
:1028200023EF0BF00F0AD8B441EF0BF0010AD8B434
:102830005FEF0BF0030AD8B47DEF0BF0010AD8B4B8
:102840009BEF0BF0070AD8B4B9EF0BF0010AD8B42C
:10285000D7EF0BF0030AD8B4F5EF0BF0010AD8B4A8
:1028600013EF0CF07F0AD8B431EF0CF0010AD8B4A2
:102870004FEF0CF0030AD8B46DEF0CF0010AD8B496
:102880008BEF0CF0070AD8B4A9EF0CF0010AD8B40A
:10289000C7EF0CF0030AD8B4E5EF0CF0010AD8B486
:1028A00003EF0DF00F0AD8B421EF0DF0010AD8B4F0
:1028B0003FEF0DF0030AD8B45DEF0DF0010AD8B474
:1028C0007BEF0DF0070AD8B499EF0DF0010AD8B4E8
:1028D000B7EF0DF0030AD8B4D5EF0DF0010AD8B464
:1028E000F3EF0DF01F0AD8B411EF0EF0010AD8B4BF
:1028F0002FEF0EF0030AD8B44DEF0EF0010AD8B452
:102900006BEF0EF0070AD8B489EF0EF0010AD8B4C5
:10291000A7EF0EF0030AD8B4C5EF0EF0010AD8B441
:10292000E3EF0EF00F0AD8B401EF0FF0010AD8B4AC
:102930001FEF0FF0030AD8B43DEF0FF0010AD8B42F
:102940005BEF0FF0070AD8B479EF0FF0010AD8B4A3
:1029500097EF0FF0030AD8B4B5EF0FF0010AD8B41F
:10296000D3EF0FF03F0AD8B4F1EF0FF0010AD8B45B
:102970000FEF10F0030AD8B42DEF10F0010AD8B40D
:102980004BEF10F0070AD8B469EF10F0010AD8B481
:1029900087EF10F0030AD8B4A5EF10F0010AD8B4FD
:1029A000C3EF10F00F0AD8B40CD4010AD8B427D45E
:1029B000030AD8B442D4010AD8B45DD4070AD8B403
:1029C00078D4010AD8B493D4030AD8B4AED4010A97
:1029D000D8B4C9D41F0AD8B4E4D4010AD8B4FFD4F7
:1029E000030AD8B41AD5010AD8B435D5070AD8B421
:1029F00050D5010AD8B46BD5030AD8B486D5010ADC
:102A0000D8B4A1D50F0AD8B4BCD5010AD8B4D7D54B
:102A1000030AD8B4F2D5010AD8B40DD6070AD8B43F
:102A200028D6010AD8B443D6030AD8B45ED67BD6DA
:102A30008C808C8295909592040E7DEC19F0020E9C
:102A40001B6E040E1A6EBA0EE82EFED71A2EFCD795
:102A50001B2EFAD700D0010E046E470EF66E100E34
:102A6000F76E0800F550E5EC19F0070E1B6E990E95
:102A70001A6E490EE82EFED71A2EFCD71B2EFAD757
:102A800000F0010E046E450EF66E100EF76E080093
:102A9000F550E5EC19F0070E1B6E990E1A6E490EF3
:102AA000E82EFED71A2EFCD71B2EFAD700F0010E07
:102AB000046E330EF66E100EF76E0800F550E5EC5E
:102AC00019F0000E046E000EE5EC19F0000E046E15
:102AD000060EE5EC19F0000E046E030EE5EC19F09D
:102AE000010E046E320EF66E100EF76E0800F550F1
:102AF000E5EC19F0000E046E010EE5EC19F0000E85
:102B0000046E2C0EE5EC19F0000E046E2D0EE5ECB3
:102B100019F0010E046E310EF66E100EF76E0800FD
:102B2000F550E5EC19F0000E046E010EE5EC19F01D
:102B3000000E046E2C0EE5EC19F0000E046E2D0E46
:102B4000E5EC19F0010E046E300EF66E100EF76E05
:102B50000800F550E5EC19F0000E046E000EE5ECEF
:102B600019F0010E046E2F0EF66E100EF76E0800AF
:102B7000F550E5EC19F0000E046EA20EE5EC19F02C
:102B8000000E046E020EE5EC19F0000E046E840EC9
:102B9000E5EC19F0010E046E2E0EF66E100EF76EB7
:102BA0000800F550E5EC19F0000E046EC50EE5ECDA
:102BB00019F0010E046E2D0EF66E100EF76E080061
:102BC000F550E5EC19F0000E046E0A0EE5EC19F074
:102BD000000E046E000EE5EC19F0010E046E2C0ED2
:102BE000F66E100EF76E0800F550E5EC19F0000EC9
:102BF000046E8A0EE5EC19F0000E046E2A0EE5EC68
:102C000019F0010E046E2B0EF66E100EF76E080012
:102C1000F550E5EC19F0000E046E8A0EE5EC19F0A3
:102C2000000E046E2A0EE5EC19F0010E046E2A0E59
:102C3000F66E100EF76E0800F550E5EC19F0000E78
:102C4000046E3C0EE5EC19F0010E046E420EF66EB9
:102C5000100EF76E0800F550E5EC19F0120E55EC69
:102C600019F0010E046E400EF66E100EF76E08009D
:102C7000F550E5EC19F0000E046E010EE5EC19F0CC
:102C8000010E046E360EF66E100EF76E0800F5504B
:102C9000E5EC19F0010E046E430EF66E100EF76EA1
:102CA0000800F550E5EC19F0488C488E488A4898A1
:102CB00048964894010E046E370EF66E100EF76EAD
:102CC0000800F550E5EC19F0000E046E4850E5ECF4
:102CD00019F06A0EF66E100EF76E0800F5CF07F0C9
:102CE000000E086E690EF66E100EF76E0800F5CF36
:102CF00009F0250EF66E100EF76E0900F5CF0AF0FA
:102D00000900F5CF0BF00900F5CF0CF00A00F5CF64
:102D10000DF0000E9EEC16F0010E046E3E0EF66EE7
:102D2000100EF76E0800F550E5EC19F0820E1A6EE1
:102D3000DE0EE82EFED71A2EFCD71200196E48BC04
:102D400048AA05D0030E0826030E092615D048AE62
:102D500008D0020E0826020E0926030E1926030EBD
:102D60000ED048AC07D0020E0826020E0926192AFA
:102D7000072A06D0082A092A020E1926020E07265B
:102D8000010E046E3C0EF66E100EF76E0800F55044
:102D9000E5EC19F0000E046E000EE5EC19F0000EE3
:102DA000046E1950E5EC19F0000E046E000EE5EC0F
:102DB00019F0000E046E0704E5EC19F0010E046E24
:102DC0003D0EF66E100EF76E0800F550E5EC19F0AA
:102DD000000E046E000EE5EC19F0000E046E0850B3
:102DE000E5EC19F0000E046E000EE5EC19F0000E93
:102DF000046E0904E5EC19F0010E046E3B0EF66E4C
:102E0000100EF76E0800F550E5EC19F01950071890
:102E1000D8A414D008500918D8A410D0000E046EFD
:102E20000A50E5EC19F0000E046E0B50E5EC19F0B9
:102E3000000E046E0C50E5EC19F0120019500E6EE5
:102E40000F6A0E1E0F1E0E4A0F2A07500E24016E27
:102E5000000E0F20026E0850106E116A101E111E17
:102E6000104A112A09501024036E000E1120046E1E
:102E7000F9EC19F001C012F002C013F00AC016F00C
:102E80000BC017F00CC018F08C908C82000E156EE1
:102E9000000E146E0BD0165024EC1AF0175024ECD0
:102EA0001AF0185024EC1AF0144A152A1250145C27
:102EB00013501558D8A0EFD78C801200010E316E38
:102EC000000E326E000E336E000E346E000E366E43
:102ED000000E356E36BE08D0365005E1200E355C4A
:102EE000D8B0120001D01200315025142D6E32508E
:102EF00026142E6E335027142F6E34502814306E43
:102F00002D502E102F103010D8B42BD035C001F01A
:102F100036C002F0000E046E050E036E66EC18F06B
:102F2000015023241A6E250EF66E100EF76E09005E
:102F3000F5CF1BF00900F5CF1CF00900F5CF1DF00F
:102F40000A00F5CF1EF035C001F036C002F0000EC9
:102F5000046E050E036EE6EC18F0015021241EEC01
:102F600019F0315029142D6E32502A142E6E335020
:102F70002B142F6E34502C14306E2D502E102F1019
:102F80003010D8B42FD0200E3524016E000E36201C
:102F9000026E000E046E050E036E66EC18F0015012
:102FA00023241A6E250EF66E100EF76E0900F5CF6B
:102FB0001BF00900F5CF1CF00900F5CF1DF00A0049
:102FC000F5CF1EF0200E3524016E000E3620026E65
:102FD000000E046E050E036EE6EC18F0015021247D
:102FE0001EEC19F0D8903136323633363436354A45
:102FF000362A36BE79D7365001E170D71200CCECB4
:1030000019F0690EF66E100EF76E0800F5CF07F096
:10301000000E086E800E096E190EF66E100EF76E19
:103020000900F5CF0AF00900F5CF0BF00900F5CF44
:103030000CF00A00F5CF0DF0000E9EEC16F0000E1D
:103040003D6E000E3C6E000E3F6E0E0E3E6E6D0E1F
:10305000406E100E416EA8EC18F0000E3D6E000E92
:103060003C6E000E3F6E1C0E3E6EAF0E406E100E9C
:10307000416EA8EC18F0000E3D6E000E3C6E000E86
:103080003F6E2A0E3E6E990E406E100E416EA8ECF9
:1030900018F0000E3D6E000E3C6E000E3F6E380EB6
:1030A0003E6E830E406E100E416EA8EC18F0000EBE
:1030B0003D6E000E3C6E000E3F6E540E3E6EC50E11
:1030C000406E100E416EA8EC18F0FFD7000E066E91
:1030D00004AE06D0036C041ED8B0042A010E066E9E
:1030E00002AE06D0016C021ED8B0022A010E061AEA
:1030F000000E086E000E076E03500410D8B41CD0EA
:10310000010E056E04D0D89003360436052A04AEAD
:10311000FAD7D890073608360350015C045002589D
:10312000D8A005D00350015E0450025A0780D89001
:1031300004320332052EEDD70650D8B404D0076C04
:10314000081ED8B0082A07C001F008C002F012001B
:10315000000E476E000E466E29D046C001F047C0F3
:1031600002F0000E046E060E036EF9EC19F03C50EE
:103170000124446E3D500220456E44C037F045C0E6
:1031800038F03EC039F03FC03AF046504024426E1D
:1031900047504120436E42C0F6FF43C0F7FF08008E
:1031A000F5CF3BF0B3EC19F0464A472A465040248D
:1031B000426E47504120436E42C0F6FF43C0F7FFC6
:1031C0000800F5500009D8B41200C7D7000E066EEB
:1031D00002AE06D0016C021ED8B0022A010E066EA5
:1031E00004AE04D0036C041ED8B0042A03500410AB
:1031F000D8B418D0010E056E04D0D890033604362A
:10320000052A04AEFAD70350015C04500258D8A036
:1032100004D00350015E0450025AD89004320332A5
:10322000052EF1D70650D8B404D0016C021ED8B0D8
:10323000022A01C001F002C002F01200206E6A0EE4
:10324000F66E100EF76E0900F550205CD8A009D07C
:103250006A0EF66E100EF76E0800F5CF1FF01F0411
:10326000206E690EF66E100EF76E0900F5501A5CAE
:10327000D8A009D06A0EF66E100EF76E0800F5CFD2
:103280001FF01F041A6E20C007F01AC008F01AC001
:1032900009F01BC00AF01CC00BF01DC00CF01EC0D2
:1032A0000DF020509EEC16F01200076E0DD0000EAF
:1032B000096E030E03D0000E096E050E086E0DD0C8
:1032C000000E096E060EFAD707500C0AD8B4EFD7D5
:1032D0001C0AD8B4F0D7020AF3D7010E046E340EDC
:1032E000F66E100EF76E0800F550E5EC19F0000EC2
:1032F000046E0850E5EC19F01200016EC69A000E3B
:10330000C76E07D0110E03D0120E01D0100EC66E7C
:103310000BD00150040AD8B4F9D7140AD8B4F2D7A4
:10332000500AD8B4F1D7F2D7949A94889496C68A62
:10333000120001C00DF002C00EF003C00FF004C077
:1033400010F005C009F006C00AF007C00BF008C075
:103350000CF020EE09F000EE01F0070EDBCFEBFFE2
:10336000E806FCE2120037C021F038C022F039C074
:1033700023F03AC024F03B506EEC08F0E9CFD9FFBF
:10338000EACFDAFF00EE25F0070EDBCFEBFFE80611
:10339000FCE25EEC17F01200000E896E000E8A6EE1
:1033A000000E8B6E000E8C6E000E8D6E9268936810
:1033B000800E946E010E956E040E966E000EC26E17
:1033C0000F0EC16E18EC15F01200066E0404D8B48E
:1033D00003D0056A052A01D0056A05468C500518F8
:1033E000FD0B05188C6E8C90065024EC1AF08C8026
:1033F000120001500302F3CF05F0F4CF06F00150A4
:103400000402F350062602500302F350062605C0BC
:1034100001F006C002F01200026E02C0C9FF9EB6A3
:1034200002D0010E01D0000E016EC7B002D0010E15
:1034300001D0000E0110F3E1C9501200486A000EDD
:10344000F86E0001FFEF17F0036E03500CEC1AF05A
:02345000120068
:020000040020DA
:08000000FFFFFFFFFFFFFFFF00
:020000040030CA
:0E000000FF061F1EFF8381FF0F400FE00F4021
:00000001FF
