:04000000B4EF6AF0FF
:0AD4D400036E03507BEC6AF01200B7
:10D4DF004554413A20202020202D206D696E202DAB
:10D4EF002D207365630000026E02C0C9FF9EB60255
:10D4FF00D0010E01D0000E016EC7B002D0010E0197
:10D50F00D0000E0110F3E1C950120001500302F3D5
:10D51F00CF05F0F4CF06F001500402F350062602B7
:10D52F00500302F350062605C001F006C002F012A8
:10D53F0000066E0404D8B403D0056A052A01D0058D
:10D54F006A05468C500518FD0B05188C6E8C9006DD
:10D55F00506AEC6AF08C801200DF0EF66ED40EF774
:10D56F006E000EF86E00EE80F010EE17F00900F569
:10D57F00CFEEFFE550E150FAE1776A000EF86E004A
:10D58F000146EF6FF0000E896E000E8A6E000E8B53
:10D59F006E000E8C6E000E8D6E92689368800E94E6
:10D5AF006E010E956E040E966E000EC26E0F0EC1BA
:10D5BF006EC0EC6DF0120037C021F038C022F03988
:10D5CF00C023F03AC024F03B5037EC72F0E9CFD9CA
:10D5DF00FFEACFDAFF00EE25F0070EDBCFEBFFE817
:10D5EF0006FCE25FEC6CF0120001C00DF002C00E01
:10D5FF00F003C00FF004C010F005C009F006C00A18
:10D60F00F007C00BF008C00CF020EE09F000EE019F
:10D61F00F0070EDBCFEBFFE806FCE21200016EC64F
:10D62F009A000EC76E07D0110E03D0120E01D01044
:10D63F000EC66E0BD00150040AD8B4F9D7140AD80D
:10D64F00B4F2D7500AD8B4F1D7F2D7949A948894F9
:10D65F0096C68A1200076E0DD0000E096E030E03D8
:10D66F00D0000E096E050E086E0DD0000E096E0665
:10D67F000EFAD707500C0AD8B4EFD71C0AD8B4F05B
:10D68F00D7020AF3D7010E046EAF0EF66EFF0EF738
:10D69F006E0800F550A0EC6AF0000E046E0850A062
:10D6AF00EC6AF01200206EE50EF66EFF0EF76E09B3
:10D6BF0000F550205CD8A009D0E50EF66EFF0EF7EE
:10D6CF006E0800F5CF1FF01F04206EE40EF66EFFFC
:10D6DF000EF76E0900F5501A5CD8A009D0E50EF6CA
:10D6EF006EFF0EF76E0800F5CF1FF01F041A6E20A5
:10D6FF00C007F01AC008F01AC009F01BC00AF01CCE
:10D70F00C00BF01DC00CF01EC00DF0205000EC6DD2
:10D71F00F01200000E066E02AE06D0016C021ED88B
:10D72F00B0022A010E066E04AE04D0036C041ED89C
:10D73F00B0042A03500410D8B418D0010E056E049B
:10D74F00D0D89003360436052A04AEFAD703500119
:10D75F005C04500258D8A004D00350015E0450025C
:10D76F005AD89004320332052EF1D70650D8B4049C
:10D77F00D0016C021ED8B0022A01C001F002C00213
:10D78F00F01200000E0C6E0AAE06D0096C0A1ED8FD
:10D79F00B00A2A010E0C6E08AE06D0076C081ED810
:10D7AF00B0082A010E0C1A000E0E6E000E0D6E0937
:10D7BF00500A10D8B41CD0010E0B6E04D0D89009AB
:10D7CF00360A360B2A0AAEFAD7D8900D360E36091E
:10D7DF0050075C0A500858D8A005D00950075E0AB8
:10D7EF0050085A0D80D8900A3209320B2EEDD70C03
:10D7FF0050D8B404D00D6C0E1ED8B00E2A0DC00731
:10D80F00F00EC008F01200000E476E000E466E3488
:10D81F00D046C001F047C002F0000E046E060E03A2
:10D82F006E8DEC6AF03C500124446E3D5002204551
:10D83F006E44C037F045C038F03EC039F03FC03AB3
:10D84F00F046504024426E47504120436E42C0F68E
:10D85F00FF43C0F7FF000EF86E0F0EF76403D008FA
:10D86F0000F55005D0F6CFE9FFF7CFEAFFEF503BB9
:10D87F006EE3EC6AF0464A472A46504024426E4710
:10D88F00504120436E42C0F6FF43C0F7FF000EF831
:10D89F006E0F0EF76403D00800F55005D0F6CFE9F0
:10D8AF00FFF7CFEAFFEF500009D8B41200B1D7014C
:10D8BF000E316E000E326E000E336E000E346E009F
:10D8CF000E366E000E356E36BE08D0365005E1208E
:10D8DF000E355CD8B0120001D01200315025142D36
:10D8EF006E325026142E6E335027142F6E3450285C
:10D8FF0014306E2D502E102F103010D8B42BD03571
:10D90F00C007F036C008F0000E0A6E050E096EC98A
:10D91F00EC6BF0075023241A6EA00EF66EFF0EF775
:10D92F006E0900F5CF1BF00900F5CF1CF00900F5CB
:10D93F00CF1DF00A00F5CF1EF035C001F036C00242
:10D94F00F0000E046E050E036E91EC6BF00150218A
:10D95F00245AEC6BF0315029142D6E32502A142EAC
:10D96F006E33502B142F6E34502C14306E2D502ECE
:10D97F00102F103010D8B42FD0200E3524076E0082
:10D98F000E3620086E000E0A6E050E096EC9EC6B7E
:10D99F00F0075023241A6EA00EF66EFF0EF76E09D5
:10D9AF0000F5CF1BF00900F5CF1CF00900F5CF1DD6
:10D9BF00F00A00F5CF1EF0200E3524016E000E3652
:10D9CF0020026E000E046E050E036E91EC6BF001DB
:10D9DF005021245AEC6BF0D890313632363336342E
:10D9EF0036354A362A36BE79D7365001E170D7120E
:10D9FF0000196E77BC77AA05D0030E0826030E090F
:10DA0F002615D077AE08D0020E0826020E0926037F
:10DA1F000E1926030E0ED077AC07D0020E08260281
:10DA2F000E0926192A072A06D0082A092A020E19D2
:10DA3F0026020E0726010E046EB70EF66EFF0EF7C6
:10DA4F006E0800F550A0EC6AF0000E046E000EA0F8
:10DA5F00EC6AF0000E046E1950A0EC6AF0000E0490
:10DA6F006E000EA0EC6AF0000E046E0704A0EC6AC4
:10DA7F00F0010E046EB80EF66EFF0EF76E0800F58D
:10DA8F0050A0EC6AF0000E046E000EA0EC6AF000DD
:10DA9F000E046E0850A0EC6AF0000E046E000EA08B
:10DAAF00EC6AF0000E046E0904A0EC6AF0010E049B
:10DABF006EB60EF66EFF0EF76E0800F550A0EC6A0C
:10DACF00F019500718D8A414D008500918D8A4106A
:10DADF00D0000E046E0A50A0EC6AF0000E046E0B1C
:10DAEF0050A0EC6AF0000E046E0C50A0EC6AF0121D
:10DAFF000019500E6E0F6A0E1E0F1E0E4A0F2A07C8
:10DB0F00500E24016E000E0F20026E0850106E1181
:10DB1F006A101E111E104A112A09501024036E009C
:10DB2F000E1120046E8DEC6AF001C012F002C013CA
:10DB3F00F00AC016F00BC017F00CC018F08C908CC8
:10DB4F0082000E156E000E146E0BD016506AEC6A22
:10DB5F00F017506AEC6AF018506AEC6AF0144A1524
:10DB6F002A1250145C13501558D8A0EFD78C80127E
:10DB7F00008C808C8295909592040E16EC6BF002BF
:10DB8F000E1B6E040E1A6EBA0EE82EFED71A2EFC5E
:10DB9F00D71B2EFAD700D0010E046EC20EF66EFF01
:10DBAF000EF76E0800F550A0EC6AF0070E1B6E9989
:10DBBF000E1A6E490EE82EFED71A2EFCD71B2EFA20
:10DBCF00D700F0010E046EC00EF66EFF0EF76E0852
:10DBDF0000F550A0EC6AF0070E1B6E990E1A6E49F5
:10DBEF000EE82EFED71A2EFCD71B2EFAD700F00107
:10DBFF000E046EAE0EF66EFF0EF76E0800F550A017
:10DC0F00EC6AF0000E046E000EA0EC6AF0000E0439
:10DC1F006E060EA0EC6AF0000E046E030EA0EC6A06
:10DC2F00F0010E046EAD0EF66EFF0EF76E0800F5E6
:10DC3F0050A0EC6AF0000E046E010EA0EC6AF0002A
:10DC4F000E046E2C0EA0EC6AF0000E046E2D0EA0CA
:10DC5F00EC6AF0010E046EAC0EF66EFF0EF76E0856
:10DC6F0000F550A0EC6AF0000E046E010EA0EC6AF5
:10DC7F00F0000E046E2C0EA0EC6AF0000E046E2D58
:10DC8F000EA0EC6AF0010E046EAB0EF66EFF0EF7EF
:10DC9F006E0800F550A0EC6AF0000E046E000EA0A6
:10DCAF00EC6AF0010E046EAA0EF66EFF0EF76E0808
:10DCBF0000F550A0EC6AF0000E046EA20EA0EC6A04
:10DCCF00F0000E046E020EA0EC6AF0000E046E84DB
:10DCDF000EA0EC6AF0010E046EA90EF66EFF0EF7A1
:10DCEF006E0800F550A0EC6AF0000E046EC50EA091
:10DCFF00EC6AF0010E046EA80EF66EFF0EF76E08BA
:10DD0F0000F550A0EC6AF0000E046E0A0EA0EC6A4B
:10DD1F00F0000E046E000EA0EC6AF0010E046EA768
:10DD2F000EF66EFF0EF76E0800F550A0EC6AF000CD
:10DD3F000E046E8A0EA0EC6AF0000E046E2A0EA07E
:10DD4F00EC6AF0010E046EA60EF66EFF0EF76E086B
:10DD5F0000F550A0EC6AF0000E046E8A0EA0EC6A7B
:10DD6F00F0000E046E2A0EA0EC6AF0010E046EA5F0
:10DD7F000EF66EFF0EF76E0800F550A0EC6AF0007D
:10DD8F000E046E3C0EA0EC6AF0010E046EBD0EF692
:10DD9F006EFF0EF76E0800F550A0EC6AF0120E320F
:10DDAF00EC6BF0010E046EBB0EF66EFF0EF76E08F5
:10DDBF0000F550A0EC6AF0000E046E010EA0EC6AA4
:10DDCF00F0010E046EB10EF66EFF0EF76E0800F541
:10DDDF0050A0EC6AF0010E046EBE0EF66EFF0EF749
:10DDEF006E0800F550A0EC6AF0778C778E778A7703
:10DDFF009877967794010E046EB20EF66EFF0EF7BB
:10DE0F006E0800F550A0EC6AF0000E046E7750A07B
:10DE1F00EC6AF0E50EF66EFF0EF76E0800F5CF0711
:10DE2F00F0000E086EE40EF66EFF0EF76E0800F5AA
:10DE3F00CF09F0A00EF66EFF0EF76E0900F5CF0AB0
:10DE4F00F00900F5CF0BF00900F5CF0CF00A00F543
:10DE5F00CF0DF0000E00EC6DF0010E046EB90EF652
:10DE6F006EFF0EF76E0800F550A0EC6AF0820E1AE6
:10DE7F006EDE0EE82EFED71A2EFCD71200CAEC6A01
:10DE8F00F0E40EF66EFF0EF76E0800F5CF07F00008
:10DE9F000E086E0E0E096E940EF66EFF0EF76E09DB
:10DEAF0000F5CF0AF00900F5CF0BF00900F5CF0C04
:10DEBF00F00A00F5CF0DF0000E00EC6DF0E40EF659
:10DECF006EFF0EF76E0800F5CF07F00E0E086E6EA0
:10DEDF000E096EA00EF66EFF0EF76E0900F5CF0A53
:10DEEF00F00900F5CF0BF00900F5CF0CF00A00F5A3
:10DEFF00CF0DF0000E00EC6DF0E40EF66EFF0EF796
:10DF0F006E0800F5CF07F0720E086E800E096E983E
:10DF1F000EF66EFF0EF76E0900F5CF0AF00900F549
:10DF2F00CF0BF00900F5CF0CF00A00F5CF0DF00084
:10DF3F000E00EC6DF0000E726E160E716E000E7408
:10DF4F006E140E736E000E766E040E756E75C00134
:10DF5F00F076C002F0000E046E150E036E8DEC6AA3
:10DF6F00F071500124616E72500220626E75C00113
:10DF7F00F076C002F0000E046E150E036E8DEC6A83
:10DF8F00F073500124636E74500220646E615075FB
:10DF9F0024076E755000087324086E6350752409AA
:10DFAF006E980EF66EFF0EF76E0900F5CF0AF009A8
:10DFBF0000F5CF0BF00900F5CF0CF00A00F5CF0DEF
:10DFCF00F075500008712400EC6DF07550070DF3DB
:10DFDF00507124076E73C008F07550070DF350731E
:10DFEF0024096EA00EF66EFF0EF76E0900F5CF0A2C
:10DFFF00F00900F5CF0BF00900F5CF0CF00A00F592
:10E00F00CF0DF0715000EC6DF07550060DF350719F
:10E01F0024076E73507524086E7550060DF35073F8
:10E02F0024096E980EF66EFF0EF76E0900F5CF0AF3
:10E03F00F00900F5CF0BF00900F5CF0CF00A00F551
:10E04F00CF0DF07150752400EC6DF07550050DF388
:10E05F00507124076E755075247324086E75500522
:10E06F000DF3507324096EA00EF66EFF0EF76E09B6
:10E07F0000F5CF0AF00900F5CF0BF00900F5CF0C32
:10E08F00F00A00F5CF0DF075507524712400EC6D7A
:10E09F00F07550150DF3507124076E73C008F075AD
:10E0AF0050070DF3507324096EA00EF66EFF0EF796
:10E0BF006E0900F5CF0AF00900F5CF0BF00900F556
:10E0CF00CF0CF00A00F5CF0DF075500E0DF3507117
:10E0DF002400EC6DF07550140DF3507124076E731E
:10E0EF00507524086E7550060DF3507324096E9801
:10E0FF000EF66EFF0EF76E0900F5CF0AF00900F568
:10E10F00CF0BF00900F5CF0CF00A00F5CF0DF0752D
:10E11F00500F0DF350712400EC6DF07550130DF38B
:10E12F00507124076E755075247324086E75500551
:10E13F000DF3507324096EA00EF66EFF0EF76E09E5
:10E14F0000F5CF0AF00900F5CF0BF00900F5CF0C61
:10E15F00F00A00F5CF0DF07538F00B712400EC6D5F
:10E16F00F07550070DF3507124076E75500E0DF3B7
:10E17F00507324086E7550150DF3507324096EA05B
:10E18F000EF66EFF0EF76E0900F5CF0AF00900F5D7
:10E19F00CF0BF00900F5CF0CF00A00F5CF0DF071A1
:10E1AF005000EC6DF07550060DF3507124076E752D
:10E1BF00500F0DF3507324086E7550140DF35073F8
:10E1CF0024096E980EF66EFF0EF76E0900F5CF0A52
:10E1DF00F00900F5CF0BF00900F5CF0CF00A00F5B0
:10E1EF00CF0DF07150752400EC6DF07550050DF3E7
:10E1FF00507124076E7538F00B7324086E75501329
:10E20F000DF3507324096EA00EF66EFF0EF76E0914
:10E21F0000F5CF0AF00900F5CF0BF00900F5CF0C90
:10E22F00F00A00F5CF0DF075507524712400EC6DD8
:10E23F00F0000E6E6E000E6D6E6EBE06D06E506BE1
:10E24F00E1150E6D5CD8B067D0000E706E000E6FCA
:10E25F006E70BE06D0705058E1150E6F5CD8B0547A
:10E26F00D06DC001F06EC002F0000E046E150E03EB
:10E27F006E8DEC6AF0C30E486EFD0E496E0150486C
:10E28F0026025049226F5048267050492248C0F646
:10E29F00FF49C0F7FF0800F5500009D8A405D09832
:10E2AF000EF66EFF0EF76E04D0A00EF66EFF0EF791
:10E2BF006E0900F5CF67F00900F5CF68F00900F59A
:10E2CF00CF69F00A00F5CF6AF06F287502F350712D
:10E2DF0024076E6D507502F3507324086E6D287508
:10E2EF0002F3507324096E67C00AF068C00BF0691F
:10E2FF00C00CF06AC00DF06F507502F3507124001E
:10E30F00EC6DF06F4A702AA4D76D4A6E2A6EBE9CD0
:10E31F00D76E5001E195D7000E3D6E000E3C6E009A
:10E32F000E3F6E000E3E6EE80E406EFF0E416E0BFE
:10E33F00EC6CF020EE80F010EE4AF0160EDBCFE31F
:10E34F00FFE806FCE2000E6C6EB40E6B6E76D06BBF
:10E35F00C007F06CC008F0000E0A6E3C0E096EC9C3
:10E36F00EC6BF00750300F536E000E046E3C0E0333
:10E37F006E6BC001F06CC002F091EC6BF001C00746
:10E38F00F002C008F0000E0A6E0A0E096EC9EC6B9F
:10E39F00F00750300F596E000E046E3C0E036E6B7B
:10E3AF00C001F06CC002F091EC6BF001C065F0029F
:10E3BF00C066F065C001F066C002F0000E046E0A80
:10E3CF000E036E91EC6BF00150300F5A6EE40EF6A7
:10E3DF006EFF0EF76E0800F5CF07F0720E086E8015
:10E3EF000E096E980EF66EFF0EF76E0900F5CF0A46
:10E3FF00F00900F5CF0BF00900F5CF0CF00A00F58E
:10E40F00CF0DF0000E00EC6DF0000E3D6E000E3CD7
:10E41F006E000E3F6E720E3E6E4A0E406E000E4143
:10E42F006E0BEC6CF0330E496EBB0E486EE00EE8CF
:10E43F002EFED7482EFCD7492EFAD76B50486E6C5C
:10E44F0050496E010E6B5E000E6C5A49BE00EF0014
:10E45F00F0495004E14804D8A000EF00F078D71A33
:10E46F006E7AEF7DF0000E016E000E026E000E034D
:10E47F006E000E046E000E056E000E066E000E0787
:10E48F006E000E086EFCEC6AF0E9CFD9FFEACFDA26
:10E49F00FF00EE11F0070EDBCFEBFFE806FCE212F8
:10E4AF0000210E016E800E026E000E036E000E0430
:10E4BF006E000E056E100E066E420E076E080E08E9
:10E4CF006EFCEC6AF0E9CFD9FFEACFDAFF00EE116C
:10E4DF00F0070EDBCFEBFFE806FCE21200000E01A7
:10E4EF006E000E026E000E036E000E046E000E051F
:10E4FF006E280E066EA50E076E000E086EFCEC6AF7
:10E50F00F0E9CFD9FFEACFDAFF00EE11F0070EDB0B
:10E51F00CFEBFFE806FCE21200FA0E016E4A0E0284
:10E52F006E010E036E000E046E000E056E000E06D9
:10E53F006EA50E076EBE0E086EFCEC6AF0E9CFD921
:10E54F00FFEACFDAFF00EE11F0070EDBCFEBFFE8AB
:10E55F0006FCE21200A30E016EF40E026E110E0302
:10E56F006E000E046E000E056E100E066E5F0E0727
:10E57F006E8A0E086EFCEC6AF0E9CFD9FFEACFDAAB
:10E58F00FF00EE11F0070EDBCFEBFFE806FCE21207
:10E59F0000110E016EAA0E026E260E036E000E04FF
:10E5AF006E000E056EC80E066EAA0E076E100E08D0
:10E5BF006EFCEC6AF0E9CFD9FFEACFDAFF00EE117B
:10E5CF00F0070EDBCFEBFFE806FCE21200280E018E
:10E5DF006E390E026E590E036E000E046E000E059C
:10E5EF006E000E066E510E076E8A0E086EFCEC6AF8
:10E5FF00F0E9CFD9FFEACFDAFF00EE11F0070EDB1B
:10E60F00CFEBFFE806FCE21200000E016E000E02D7
:10E61F006E000E036E000E046E000E056E100E06D9
:10E62F006E420E076E000E086EFCEC6AF0E9CFD951
:10E63F00FFEACFDAFF00EE11F0070EDBCFEBFFE8BA
:10E64F0006FCE21200100E016E820E026E100E0317
:10E65F006E040E046E000E056E110E066E220E076E
:10E66F006E840E086EFCEC6AF0E9CFD9FFEACFDAC0
:10E67F00FF00EE11F0070EDBCFEBFFE806FCE21216
:10E68F0000420E016E880E026E100E036E010E0414
:10E69F006E400E056E100E066E820E076E100E087F
:10E6AF006EFCEC6AF0E9CFD9FFEACFDAFF00EE118A
:10E6BF00F0070EDBCFEBFFE806FCE21200010E01C4
:10E6CF006E000E026E000E036E000E046E000E053D
:10E6DF006E900E066EEA0E076E2A0E086EFCEC6A3E
:10E6EF00F0E9CFD9FFEACFDAFF00EE11F0070EDB2A
:10E6FF00CFEBFFE806FCE21200270E016E040E02BC
:10E70F006E000E036E000E046E000E056E000E06F8
:10E71F006E400E076EC80E086EFCEC6AF0E9CFD99A
:10E72F00FFEACFDAFF00EE11F0070EDBCFEBFFE8C9
:10E73F0006FCE21200000E016E800E026E110E0337
:10E74F006E010E046E000E056E000E066E000E07B3
:10E75F006E000E086EFCEC6AF0E9CFD9FFEACFDA53
:10E76F00FF00EE11F0070EDBCFEBFFE806FCE21225
:10E77F0000070E016E000E026E000E036E000E04F7
:10E78F006E000E056E000E066E000E076EC00E08B0
:10E79F006EFCEC6AF0E9CFD9FFEACFDAFF00EE1199
:10E7AF00F0070EDBCFEBFFE806FCE21200000E01D4
:10E7BF006E800E026E380E036E020E046E000E0592
:10E7CF006E000E066E000E076E000E086EFCEC6AF1
:10E7DF00F0E9CFD9FFEACFDAFF00EE11F0070EDB39
:10E7EF00CFEBFFE806FCE21200110E016E220E02C3
:10E7FF006E040E036E000E046E000E056E400E06C4
:10E80F006E880E076E100E086EFCEC6AF0E9CFD919
:10E81F00FFEACFDAFF00EE11F0070EDBCFEBFFE8D8
:10E82F0006FCE212008C0E016E8A0E026E000E03C1
:10E83F006E000E046E800E056EA80E066E180E0783
:10E84F006E630E086EFCEC6AF0E9CFD9FFEACFDAFF
:10E85F00FF00EE11F0070EDBCFEBFFE806FCE21234
:10E86F0000210E016EE40E026E030E036E000E0405
:10E87F006E800E056E980E066E420E076E080E081D
:10E88F006EFCEC6AF0E9CFD9FFEACFDAFF00EE11A8
:10E89F00F0070EDBCFEBFFE806FCE21200110E01D2
:10E8AF006EE10E026E030E036E000E046EC00E05B7
:10E8BF006EC50E066E080E076E110E086EFCEC6A22
:10E8CF00F0E9CFD9FFEACFDAFF00EE11F0070EDB48
:10E8DF00CFEBFFE806FCE21200840E016ED10E02B0
:10E8EF006E010E036E000E046EE00E056E430E06F3
:10E8FF006E440E076E1C0E086EFCEC6AF0E9CFD961
:10E90F00FFEACFDAFF00EE11F0070EDBCFEBFFE8E7
:10E91F0006FCE21200FA0E016E080E026E010E03E3
:10E92F006E000E046E000E056E210E066EA60E070B
:10E93F006E540E086EFCEC6AF0E9CFD9FFEACFDA1D
:10E94F00FF00EE11F0070EDBCFEBFFE806FCE21243
:10E95F0000840E016ED10E026E010E036E000E04C6
:10E96F006EE00E056E870E066ED00E076E260E0831
:10E97F006EFCEC6AF0E9CFD9FFEACFDAFF00EE11B7
:10E98F00F0070EDBCFEBFFE806FCE212008C0E0166
:10E99F006ED10E026E010E036E000E046EC00E05D8
:10E9AF006EC50E066E100E076E5E0E086EFCEC6ADC
:10E9BF00F0E9CFD9FFEACFDAFF00EE11F0070EDB57
:10E9CF00CFEBFFE806FCE21200110E016E420E02C1
:10E9DF006E000E036E000E046EE00E056E430E0603
:10E9EF006E840E076E080E086EFCEC6AF0E9CFD944
:10E9FF00FFEACFDAFF00EE11F0070EDBCFEBFFE8F7
:10EA0F0006FCE212008C0E016ED10E026E010E0397
:10EA1F006E000E046EC00E056EC50E066E180E0744
:10EA2F006E5D0E086EFCEC6AF0E9CFD9FFEACFDA23
:10EA3F00FF00EE11F0070EDBCFEBFFE806FCE21252
:10EA4F0000840E016ED10E026E010E036E000E04D5
:10EA5F006EC00E056EC50E066E180E076E3D0E08C3
:10EA6F006EFCEC6AF0E9CFD9FFEACFDAFF00EE11C6
:10EA7F00F0070EDBCFEBFFE806FCE21200200E01E1
:10EA8F006E8E0E026E000E036E000E046E000E05EB
:10EA9F006E100E066E470E076E000E086EFCEC6AC7
:10EAAF00F0E9CFD9FFEACFDAFF00EE11F0070EDB66
:10EABF00CFEBFFE806FCE21200010E016E800E02A2
:10EACF006E110E036E010E046E000E056E000E0623
:10EADF006E400E076E1C0E086EFCEC6AF0E9CFD983
:10EAEF00FFEACFDAFF00EE11F0070EDBCFEBFFE806
:10EAFF0006FCE21200100E016E040E026E410E03B0
:10EB0F006E000E046E000E056E400E066E440E076C
:10EB1F006E440E086EFCEC6AF0E9CFD9FFEACFDA4B
:10EB2F00FF00EE11F0070EDBCFEBFFE806FCE21261
:10EB3F0000000E016E1F0E026E000E036E000E041B
:10EB4F006E000E056E000E066E000E076E3E0E086E
:10EB5F006EFCEC6AF0E9CFD9FFEACFDAFF00EE11D5
:10EB6F00F0070EDBCFEBFFE806FCE21200440E01CC
:10EB7F006E440E026E040E036E000E046E000E0540
:10EB8F006E040E066E410E076E100E086EFCEC6AD8
:10EB9F00F0E9CFD9FFEACFDAFF00EE11F0070EDB75
:10EBAF00CFEBFFE806FCE21200220E016E040E020C
:10EBBF006E100E036E000E046E000E056EB80E067C
:10EBCF006E180E076E210E086EFCEC6AF0E9CFD9B5
:10EBDF00FFEACFDAFF00EE11F0070EDBCFEBFFE815
:10EBEF0006FCE21200AD0E016E2D0E026E780E03C2
:10EBFF006E000E046E000E056EB80E066E180E0730
:10EC0F006E730E086EFCEC6AF0E9CFD9FFEACFDA2B
:10EC1F00FF00EE11F0070EDBCFEBFFE806FCE21270
:10EC2F00008F0E016E310E026E020E036E000E0487
:10EC3F006E800E056EA80E066E180E076EE30E0898
:10EC4F006EFCEC6AF0E9CFD9FFEACFDAFF00EE11E4
:10EC5F00F0070EDBCFEBFFE806FCE21200940E018B
:10EC6F006EF20E026E010E036E000E046EE00E05C4
:10EC7F006E490E066E290E076E9D0E086EFCEC6A2D
:10EC8F00F0E9CFD9FFEACFDAFF00EE11F0070EDB84
:10EC9F00CFEBFFE806FCE21200080E016ED10E0268
:10ECAF006E010E036E000E046EC00E056EC50E06CD
:10ECBF006E100E076E420E086EFCEC6AF0E9CFD9AB
:10ECCF00FFEACFDAFF00EE11F0070EDBCFEBFFE824
:10ECDF0006FCE21200940E016EF20E026E010E039C
:10ECEF006E000E046EE00E056E490E066E290E07BD
:10ECFF006EA50E086EFCEC6AF0E9CFD9FFEACFDA09
:10ED0F00FF00EE11F0070EDBCFEBFFE806FCE2127F
:10ED1F0000080E016EE10E026E030E036E000E046C
:10ED2F006EE00E056E870E066E100E076E5E0E08F5
:10ED3F006EFCEC6AF0E9CFD9FFEACFDAFF00EE11F3
:10ED4F00F0070EDBCFEBFFE806FCE21200080E0126
:10ED5F006E210E026E000E036E000E046EE00E05A5
:10ED6F006E870E066E100E076E5E0E086EFCEC6A56
:10ED7F00F0E9CFD9FFEACFDAFF00EE11F0070EDB93
:10ED8F00CFEBFFE806FCE212008E0E016ED10E02F1
:10ED9F006E010E036E000E046EC00E056EC50E06DC
:10EDAF006E100E076E420E086EFCEC6AF0E9CFD9BA
:10EDBF00FFEACFDAFF00EE11F0070EDBCFEBFFE833
:10EDCF0006FCE212008C0E016E310E026E020E0373
:10EDDF006E000E046E200E056EC60E066E180E0720
:10EDEF006E7F0E086EFCEC6AF0E9CFD9FFEACFDA3E
:10EDFF00FF00EE11F0070EDBCFEBFFE806FCE2128F
:10EE0F0000210E016EC40E026E010E036E000E0481
:10EE1F006EC00E056E110E066E420E076E080E08BE
:10EE2F006EFCEC6AF0E9CFD9FFEACFDAFF00EE1102
:10EE3F00F0070EDBCFEBFFE806FCE21200420E01FB
:10EE4F006EC90E026E000E036E000E046E800E056C
:10EE5F006E230E066E840E076E100E086EFCEC6AA3
:10EE6F00F0E9CFD9FFEACFDAFF00EE11F0070EDBA2
:10EE7F00CFEBFFE806FCE21200490E016E310E02E5
:10EE8F006E020E036E000E046E200E056EC60E0689
:10EE9F006E540E076E460E086EFCEC6AF0E9CFD981
:10EEAF00FFEACFDAFF00EE11F0070EDBCFEBFFE842
:10EEBF0006FCE21200080E016EE10E026E030E0355
:10EECF006E000E046E200E056E840E066E100E0779
:10EEDF006E420E086EFCEC6AF0E9CFD9FFEACFDA8A
:10EEEF00FF00EE11F0070EDBCFEBFFE806FCE2129E
:10EEFF00008C0E016E310E026E020E036E000E04B8
:10EF0F006E200E056EC60E066E5D0E076E6B0E083A
:10EF1F006EFCEC6AF0E9CFD9FFEACFDAFF00EE1111
:10EF2F00F0070EDBCFEBFFE806FCE21200CE0E017E
:10EF3F006E310E026E020E036E000E046E200E0571
:10EF4F006ECE0E066E590E076E6B0E086EFCEC6AD7
:10EF5F00F0E9CFD9FFEACFDAFF00EE11F0070EDBB1
:10EF6F00CFEBFFE806FCE212008C0E016ED10E0211
:10EF7F006E010E036E000E046EC00E056EC50E06FA
:10EF8F006E180E076E630E086EFCEC6AF0E9CFD9AF
:10EF9F00FFEACFDAFF00EE11F0070EDBCFEBFFE851
:10EFAF0006FCE21200080E016E210E026E000E0327
:10EFBF006E000E046EE00E056EC50E066E180E077F
:10EFCF006E5F0E086EFCEC6AF0E9CFD9FFEACFDA7C
:10EFDF00FF00EE11F0070EDBCFEBFFE806FCE212AD
:10EFEF00008C0E016ED50E026E410E036E000E04E4
:10EFFF006EC00E056EC50E066E180E076E630E08F8
:10F00F006EFCEC6AF0E9CFD9FFEACFDAFF00EE1120
:10F01F00F0070EDBCFEBFFE806FCE21200490E0112
:10F02F006E310E026E020E036E000E046EE00E05C0
:10F03F006EC50E066E180E076E5F0E086EFCEC6A3C
:10F04F00F0E9CFD9FFEACFDAFF00EE11F0070EDBC0
:10F05F00CFEBFFE806FCE21200840E016ED10E0228
:10F06F006E010E036E000E046EC00E056EC50E0609
:10F07F006E100E076E1C0E086EFCEC6AF0E9CFD90D
:10F08F00FFEACFDAFF00EE11F0070EDBCFEBFFE860
:10F09F0006FCE21200210E016E840E026E000E03BA
:10F0AF006E000E046EE00E056E130E066E420E0716
:10F0BF006E080E086EFCEC6AF0E9CFD9FFEACFDAE2
:10F0CF00FF00EE11F0070EDBCFEBFFE806FCE212BC
:10F0DF00008C0E016ED10E026E010E036E000E0437
:10F0EF006E200E056EC60E066E180E076E630E08A6
:10F0FF006EFCEC6AF0E9CFD9FFEACFDAFF00EE1130
:10F10F00F0070EDBCFEBFFE806FCE21200520E0118
:10F11F006E840E026E000E036E000E046E200E053E
:10F12F006EC60E066E180E076EA30E086EFCEC6A06
:10F13F00F0E9CFD9FFEACFDAFF00EE11F0070EDBCF
:10F14F00CFEBFFE806FCE21200AD0E016E550E028A
:10F15F006E010E036E000E046E200E056EC60E06B7
:10F16F006E180E076E6B0E086EFCEC6AF0E9CFD9C5
:10F17F00FFEACFDAFF00EE11F0070EDBCFEBFFE86F
:10F18F0006FCE21200520E016E310E026E020E03E9
:10F19F006E000E046E200E056E460E066EA50E074F
:10F1AF006E880E086EFCEC6AF0E9CFD9FFEACFDA71
:10F1BF00FF00EE11F0070EDBCFEBFFE806FCE212CB
:10F1CF0000210E016E840E026E000E036E000E04FF
:10F1DF006E200E056E460E066EA50E076E080E0803
:10F1EF006EFCEC6AF0E9CFD9FFEACFDAFF00EE113F
:10F1FF00F0070EDBCFEBFFE806FCE21200100E016A
:10F20F006EE10E026E030E036E000E046EE00E052D
:10F21F006E430E066E840E076E880E086EFCEC6A47
:10F22F00F0E9CFD9FFEACFDAFF00EE11F0070EDBDE
:10F23F00CFEBFFE806FCE21200100E016E420E0249
:10F24F006E080E036E070E046EC00E056E090E06D5
:10F25F006E210E076E840E086EFCEC6AF0E9CFD9B2
:10F26F00FFEACFDAFF00EE11F0070EDBCFEBFFE87E
:10F27F0006FCE21200410E016E080E026E420E03F2
:10F28F006E000E046E000E056E840E066E200E07C5
:10F29F006E040E086EFCEC6AF0E9CFD9FFEACFDA04
:10F2AF00FF00EE11F0070EDBCFEBFFE806FCE212DA
:10F2BF0000420E016E080E026E210E036E070E0441
:10F2CF006EC00E056E210E066E840E076E100E08B0
:10F2DF006EFCEC6AF0E9CFD9FFEACFDAFF00EE114E
:10F2EF00F0070EDBCFEBFFE806FCE21200000E0189
:10F2FF006E000E026E000E036E000E046E000E0501
:10F30F006E100E066E150E076E010E086EFCEC6A7F
:10F31F00F0E9CFD9FFEACFDAFF00EE11F0070EDBED
:10F32F00CFEBFFE806FCE21200000E016E000E02AA
:10F33F006E800E036E0F0E046E000E056E000E062D
:10F34F006E000E076E000E086EFCEC6AF0E9CFD966
:10F35F00FFEACFDAFF00EE11F0070EDBCFEBFFE88D
:10F36F0006FCE21200000E016E000E026E000E038C
:10F37F006E000E046EC00E056E100E066E040E07A4
:10F38F006E000E086EFCEC6AF0E9CFD9FFEACFDA17
:10F39F00FF00EE11F0070EDBCFEBFFE806FCE212E9
:10F3AF00008F0E016ED90E026E020E036E000E0458
:10F3BF006E000E056E000E066EE00E076EA00E08B4
:10F3CF006EFCEC6AF0E9CFD9FFEACFDAFF00EE115D
:10F3DF00F0070EDBCFEBFFE806FCE212008C0E010C
:10F3EF006EF10E026E010E036E000E046E200E05FE
:10F3FF006E840E066EF00E076E620E086EFCEC6ADF
:10F40F00F0E9CFD9FFEACFDAFF00EE11F0070EDBFC
:10F41F00CFEBFFE806FCE21200080E016ED10E02E0
:10F42F006E010E036E000E046E000E056E000E06CA
:10F43F006EE00E076E620E086EFCEC6AF0E9CFD933
:10F44F00FFEACFDAFF00EE11F0070EDBCFEBFFE89C
:10F45F0006FCE212008C0E016ED10E026E030E033B
:10F46F006E000E046E000E056E420E066EE80E075D
:10F47F006E630E086EFCEC6AF0E9CFD9FFEACFDAC3
:10F48F00FF00EE11F0070EDBCFEBFFE806FCE212F8
:10F49F00000F0E016ED10E026E010E036E000E04F0
:10F4AF006E000E056E000E066EE00E076EE20E0881
:10F4BF006EFCEC6AF0E9CFD9FFEACFDAFF00EE116C
:10F4CF00F0070EDBCFEBFFE806FCE21200100E0197
:10F4DF006E420E026E000E036E000E046E800E055D
:10F4EF006E490E066E210E076E9E0E086EFCEC6ABC
:10F4FF00F0E9CFD9FFEACFDAFF00EE11F0070EDB0C
:10F50F00CFEBFFE806FCE212008C0E016E1E0E021E
:10F51F006E460E036E070E046E000E056E000E068D
:10F52F006EE00E076E620E086EFCEC6AF0E9CFD942
:10F53F00FFEACFDAFF00EE11F0070EDBCFEBFFE8AB
:10F54F0006FCE212008C0E016E310E026E020E03EB
:10F55F006E000E046E200E056E840E066ED00E0722
:10F56F006E660E086EFCEC6AF0E9CFD9FFEACFDACF
:10F57F00FF00EE11F0070EDBCFEBFFE806FCE21207
:10F58F0000210E016EC40E026E010E036E000E04FA
:10F59F006E000E056E100E066E600E076E080E08DA
:10F5AF006EFCEC6AF0E9CFD9FFEACFDAFF00EE117B
:10F5BF00F0070EDBCFEBFFE806FCE21200420E0174
:10F5CF006E280E026E250E036E030E046E000E05DE
:10F5DF006E010E066E860E076E100E086EFCEC6A3C
:10F5EF00F0E9CFD9FFEACFDAFF00EE11F0070EDB1B
:10F5FF00CFEBFFE806FCE21200280E016E290E0287
:10F60F006E020E036E000E046E200E056E840E0643
:10F61F006E900E076ECA0E086EFCEC6AF0E9CFD939
:10F62F00FFEACFDAFF00EE11F0070EDBCFEBFFE8BA
:10F63F0006FCE21200210E016EC40E026E010E03D3
:10F64F006E000E046EC00E056E100E066E420E0793
:10F65F006E080E086EFCEC6AF0E9CFD9FFEACFDA3C
:10F66F00FF00EE11F0070EDBCFEBFFE806FCE21216
:10F67F0000AD0E016E350E026E020E036E000E040B
:10F68F006E000E056E000E066EB00E076E6A0E0847
:10F69F006EFCEC6AF0E9CFD9FFEACFDAFF00EE118A
:10F6AF00F0070EDBCFEBFFE806FCE212008C0E0139
:10F6BF006E310E026E020E036E000E046E000E050A
:10F6CF006E000E066ED00E076E660E086EFCEC6AAC
:10F6DF00F0E9CFD9FFEACFDAFF00EE11F0070EDB2A
:10F6EF00CFEBFFE806FCE212008C0E016ED10E028A
:10F6FF006E010E036E000E046E000E056E000E06F8
:10F70F006EE00E076E620E086EFCEC6AF0E9CFD960
:10F71F00FFEACFDAFF00EE11F0070EDBCFEBFFE8C9
:10F72F0006FCE21200840E016E2F0E026E840E0391
:10F73F006E000E046E000E056E000E066EF00E07C4
:10F74F006E200E086EFCEC6AF0E9CFD9FFEACFDA33
:10F75F00FF00EE11F0070EDBCFEBFFE806FCE21225
:10F76F00008C0E016E1E0E026E420E036E080E040A
:10F77F006E000E056E000E066EE00E076E630E082D
:10F78F006EFCEC6AF0E9CFD9FFEACFDAFF00EE1199
:10F79F00F0070EDBCFEBFFE806FCE21200080E01CC
:10F7AF006E210E026E000E036E000E046E000E052B
:10F7BF006E000E066ED00E076E660E086EFCEC6ABB
:10F7CF00F0E9CFD9FFEACFDAFF00EE11F0070EDB39
:10F7DF00CFEBFFE806FCE21200410E016ED10E02E4
:10F7EF006E010E036E000E046E000E056E000E0607
:10F7FF006EE00E076EA20E086EFCEC6AF0E9CFD930
:10F80F00FFEACFDAFF00EE11F0070EDBCFEBFFE8D8
:10F81F0006FCE21200100E016E920E026E010E0334
:10F82F006E000E046E000E056E080E066EF10E07CA
:10F83F006E840E086EFCEC6AF0E9CFD9FFEACFDADE
:10F84F00FF00EE11F0070EDBCFEBFFE806FCE21234
:10F85F00008C0E016ED90E026E020E036E000E04A6
:10F86F006E000E056E000E066E100E076E630E080C
:10F87F006EFCEC6AF0E9CFD9FFEACFDAFF00EE11A8
:10F88F00F0070EDBCFEBFFE806FCE21200540E018F
:10F89F006E8A0E026E000E036E000E046E000E05D1
:10F8AF006E000E066E100E076E630E086EFCEC6A8D
:10F8BF00F0E9CFD9FFEACFDAFF00EE11F0070EDB48
:10F8CF00CFEBFFE806FCE21200AD0E016E550E0203
:10F8DF006E010E036E000E046E000E056E000E0616
:10F8EF006E100E076E630E086EFCEC6AF0E9CFD94E
:10F8FF00FFEACFDAFF00EE11F0070EDBCFEBFFE8E8
:10F90F0006FCE21200210E016E2A0E026E020E0399
:10F91F006E000E046E000E056E000E066E100E07C2
:10F92F006E150E086EFCEC6AF0E9CFD9FFEACFDA5C
:10F93F00FF00EE11F0070EDBCFEBFFE806FCE21243
:10F94F0000CC0E016E160E026E460E036E070E04ED
:10F95F006E000E056E000E066E100E076E630E081B
:10F96F006EFCEC6AF0E9CFD9FFEACFDAFF00EE11B7
:10F97F00F0070EDBCFEBFFE806FCE21200110E01E1
:10F98F006EE10E026E030E036E000E046E000E0586
:10F99F006E000E066EF00E076E110E086EFCEC6A0E
:10F9AF00F0E9CFD9FFEACFDAFF00EE11F0070EDB57
:10F9BF00CFEBFFE806FCE21200200E016E840E0270
:10F9CF006E100E036E0C0E046E000E056E130E06F7
:10F9DF006E420E076EC80E086EFCEC6AF0E9CFD9C6
:10F9EF00FFEACFDAFF00EE11F0070EDBCFEBFFE8F7
:10F9FF0006FCE21200210E016E840E026E100E0341
:10FA0F006E000E046E000E056E100E066E420E078F
:10FA1F006E080E086EFCEC6AF0E9CFD9FFEACFDA78
:10FA2F00FF00EE11F0070EDBCFEBFFE806FCE21252
:10FA3F0000260E016E840E026E900E036E010E04F0
:10FA4F006E600E056E100E066E420E076E080E08E3
:10FA5F006EFCEC6AF0E9CFD9FFEACFDAFF00EE11C6
:10FA6F00F0070EDBCFEBFFE806FCE21200000E0101
:10FA7F006E000E026E000E036E000E046E000E0579
:10FA8F006EC80E066E9A0E076E000E086EFCEC6ABC
:10FA9F00F0E9CFD9FFEACFDAFF00EE11F0070EDB66
:10FAAF00CFEBFFE806FCE21200000E016E000E0223
:10FABF006E000E036E000E046E000E056E000E0635
:10FACF006E000E076E000E086EFCEC6AF0E9CFD9DF
:10FADF00FFEACFDAFF00EE11F0070EDBCFEBFFE806
:10FAEF0006FCE212001A50200AD8B43AEF72F00165
:10FAFF000AD8B458EF72F0030AD8B476EF72F00157
:10FB0F000AD8B494EF72F0070AD8B4B2EF72F001CA
:10FB1F000AD8B4D0EF72F0030AD8B4EEEF72F00146
:10FB2F000AD8B40CEF73F00F0AD8B42AEF73F001B0
:10FB3F000AD8B448EF73F0030AD8B466EF73F00134
:10FB4F000AD8B484EF73F0070AD8B4A2EF73F001A8
:10FB5F000AD8B4C0EF73F0030AD8B4DEEF73F00124
:10FB6F000AD8B4FCEF73F01F0AD8B41AEF74F0017F
:10FB7F000AD8B438EF74F0030AD8B456EF74F00112
:10FB8F000AD8B474EF74F0070AD8B492EF74F00186
:10FB9F000AD8B4B0EF74F0030AD8B4CEEF74F00102
:10FBAF000AD8B4ECEF74F00F0AD8B40AEF75F0016D
:10FBBF000AD8B428EF75F0030AD8B446EF75F001F0
:10FBCF000AD8B464EF75F0070AD8B482EF75F00164
:10FBDF000AD8B4A0EF75F0030AD8B4BEEF75F001E0
:10FBEF000AD8B4DCEF75F07F0AD8B4FAEF75F001DC
:10FBFF000AD8B418EF76F0030AD8B436EF76F001CE
:10FC0F000AD8B454EF76F0070AD8B472EF76F00141
:10FC1F000AD8B490EF76F0030AD8B4AEEF76F001BD
:10FC2F000AD8B4CCEF76F00F0AD8B4EAEF76F00129
:10FC3F000AD8B408EF77F0030AD8B426EF77F001AB
:10FC4F000AD8B444EF77F0070AD8B462EF77F0011F
:10FC5F000AD8B480EF77F0030AD8B49EEF77F0019B
:10FC6F000AD8B4BCEF77F01F0AD8B4DAEF77F001F7
:10FC7F000AD8B4F8EF77F0030AD8B416EF78F0018A
:10FC8F000AD8B434EF78F0070AD8B452EF78F001FD
:10FC9F000AD8B470EF78F0030AD8B48EEF78F00179
:10FCAF000AD8B4ACEF78F00F0AD8B4CAEF78F001E5
:10FCBF000AD8B4E8EF78F0030AD8B406EF79F00168
:10FCCF000AD8B424EF79F0070AD8B442EF79F001DB
:10FCDF000AD8B460EF79F0030AD8B47EEF79F00157
:10FCEF000AD8B49CEF79F03F0AD8B4BAEF79F00193
:10FCFF000AD8B4D8EF79F0030AD8B4F6EF79F00147
:10FD0F000AD8B414EF7AF0070AD8B432EF7AF001B8
:10FD1F000AD8B450EF7AF0030AD8B46EEF7AF00134
:10FD2F000AD8B48CEF7AF00F0AD8B40CD4010AD8E1
:10FD3F00B427D4030AD8B442D4010AD8B45DD40787
:10FD4F000AD8B478D4010AD8B493D4030AD8B4AE7D
:10FD5F00D4010AD8B4C9D41F0AD8B4E4D4010AD83C
:10FD6F00B4FFD4030AD8B41AD5010AD8B435D507CD
:10FD7F000AD8B450D5010AD8B46BD5030AD8B486C3
:10FD8F00D5010AD8B4A1D50F0AD8B4BCD5010AD869
:10FD9F00B4D7D5030AD8B4F2D5010AD8B40DD60713
:10FDAF000AD8B428D6010AD8B443D6030AD8B45E09
:10FDBF00D67BD60001010101010101000101000004
:10FDCF00010001010101010101010000000000011A
:10FDDF00000001000001000100000000000101000F
:10FDEF0001010100010001000100010001000101FA
:10FDFF0001000101000101010001000100000100EB
:10FE0F0000010001010100010100010101000100D9
:10FE1F0001010100000001000101010001010000CA
:10FE2F0000000001000000000000000100000000C1
:10FE3F0000010101010101010100010001000100A8
:10FE4F00010101010101010000000000000000009C
:10FE5F00010100000000000000000000010101018D
:10FE6F00000001000100010000010000010101007C
:10FE7F00010000010100010000010001000101006B
:10FE8F000101010101010100010101010101010055
:10FE9F00000001000001000000010100010100014C
:10FEAF00000001000000000101000000010001013D
:10FEBF00000001010100010101010101000000002A
:10FECF00000000010000000000000000000101011F
:10FEDF00000001000001010000000101010101010A
:10FEEF0001000000010000010101010101000001FA
:10FEFF0000000000000100000100010101010001EC
:10FF0F0001010000010001010100010000000101D9
:10FF1F0000000101010101000001000101010001C8
:10FF2F0000010001000001000000000101000100BC
:10FF3F0001010100010001000101000100000001A9
:10FF4F00000000010000000000010001010101019B
:10FF5F000001000001000001010101010101010088
:10FF6F0001000001010000000100010000D3009416
:10FF7F000082004B00FF00000000FF000000FFFFA9
:10FF8F0000008CFF000000FF00FFFFFF008080805B
:10FF9F000000000000C7C5C4C3C2C1C0B4B3B2B132
:10FFAF003A3938363534302C2B2A2928262120137C
:10FFBF001211100100C7C5C4C3C2C1C0B4B3B2B1DE
:10FFCF003A3938363534302C2B2A2928262120135C
:10FFDF0012111001008080A0804A616E2032382CEF
:10FFEF002032303138202031313A353020504D0019
:01FFFF000001
:020000040020DA
:08000000FFFFFFFFFFFFFFFF00
:020000040030CA
:0E000000FF061F1EFF8381FF0F400FE00F4021
:00000001FF
